{
  "_format": "hh-sol-artifact-1",
  "contractName": "MyNFT",
  "sourceName": "contracts/MyNFT.sol",
  "abi": [
    {
      "inputs": [
        {
          "internalType": "string",
          "name": "baseURI",
          "type": "string"
        }
      ],
      "stateMutability": "nonpayable",
      "type": "constructor"
    },
    {
      "anonymous": false,
      "inputs": [
        {
          "indexed": true,
          "internalType": "address",
          "name": "owner",
          "type": "address"
        },
        {
          "indexed": true,
          "internalType": "address",
          "name": "approved",
          "type": "address"
        },
        {
          "indexed": true,
          "internalType": "uint256",
          "name": "tokenId",
          "type": "uint256"
        }
      ],
      "name": "Approval",
      "type": "event"
    },
    {
      "anonymous": false,
      "inputs": [
        {
          "indexed": true,
          "internalType": "address",
          "name": "owner",
          "type": "address"
        },
        {
          "indexed": true,
          "internalType": "address",
          "name": "operator",
          "type": "address"
        },
        {
          "indexed": false,
          "internalType": "bool",
          "name": "approved",
          "type": "bool"
        }
      ],
      "name": "ApprovalForAll",
      "type": "event"
    },
    {
      "anonymous": false,
      "inputs": [
        {
          "indexed": true,
          "internalType": "address",
          "name": "previousOwner",
          "type": "address"
        },
        {
          "indexed": true,
          "internalType": "address",
          "name": "newOwner",
          "type": "address"
        }
      ],
      "name": "OwnershipTransferred",
      "type": "event"
    },
    {
      "anonymous": false,
      "inputs": [
        {
          "indexed": true,
          "internalType": "address",
          "name": "from",
          "type": "address"
        },
        {
          "indexed": true,
          "internalType": "address",
          "name": "to",
          "type": "address"
        },
        {
          "indexed": true,
          "internalType": "uint256",
          "name": "tokenId",
          "type": "uint256"
        }
      ],
      "name": "Transfer",
      "type": "event"
    },
    {
      "inputs": [],
      "name": "MAX_PER_MINT",
      "outputs": [
        {
          "internalType": "uint256",
          "name": "",
          "type": "uint256"
        }
      ],
      "stateMutability": "view",
      "type": "function"
    },
    {
      "inputs": [],
      "name": "MAX_SUPPLY",
      "outputs": [
        {
          "internalType": "uint256",
          "name": "",
          "type": "uint256"
        }
      ],
      "stateMutability": "view",
      "type": "function"
    },
    {
      "inputs": [],
      "name": "PRICE",
      "outputs": [
        {
          "internalType": "uint256",
          "name": "",
          "type": "uint256"
        }
      ],
      "stateMutability": "view",
      "type": "function"
    },
    {
      "inputs": [
        {
          "internalType": "address",
          "name": "to",
          "type": "address"
        },
        {
          "internalType": "uint256",
          "name": "tokenId",
          "type": "uint256"
        }
      ],
      "name": "approve",
      "outputs": [],
      "stateMutability": "nonpayable",
      "type": "function"
    },
    {
      "inputs": [
        {
          "internalType": "address",
          "name": "owner",
          "type": "address"
        }
      ],
      "name": "balanceOf",
      "outputs": [
        {
          "internalType": "uint256",
          "name": "",
          "type": "uint256"
        }
      ],
      "stateMutability": "view",
      "type": "function"
    },
    {
      "inputs": [],
      "name": "baseTokenURI",
      "outputs": [
        {
          "internalType": "string",
          "name": "",
          "type": "string"
        }
      ],
      "stateMutability": "view",
      "type": "function"
    },
    {
      "inputs": [
        {
          "internalType": "uint256",
          "name": "tokenId",
          "type": "uint256"
        }
      ],
      "name": "getApproved",
      "outputs": [
        {
          "internalType": "address",
          "name": "",
          "type": "address"
        }
      ],
      "stateMutability": "view",
      "type": "function"
    },
    {
      "inputs": [
        {
          "internalType": "address",
          "name": "owner",
          "type": "address"
        },
        {
          "internalType": "address",
          "name": "operator",
          "type": "address"
        }
      ],
      "name": "isApprovedForAll",
      "outputs": [
        {
          "internalType": "bool",
          "name": "",
          "type": "bool"
        }
      ],
      "stateMutability": "view",
      "type": "function"
    },
    {
      "inputs": [
        {
          "internalType": "uint256",
          "name": "_count",
          "type": "uint256"
        }
      ],
      "name": "mintNFTs",
      "outputs": [],
      "stateMutability": "payable",
      "type": "function"
    },
    {
      "inputs": [],
      "name": "name",
      "outputs": [
        {
          "internalType": "string",
          "name": "",
          "type": "string"
        }
      ],
      "stateMutability": "view",
      "type": "function"
    },
    {
      "inputs": [],
      "name": "owner",
      "outputs": [
        {
          "internalType": "address",
          "name": "",
          "type": "address"
        }
      ],
      "stateMutability": "view",
      "type": "function"
    },
    {
      "inputs": [
        {
          "internalType": "uint256",
          "name": "tokenId",
          "type": "uint256"
        }
      ],
      "name": "ownerOf",
      "outputs": [
        {
          "internalType": "address",
          "name": "",
          "type": "address"
        }
      ],
      "stateMutability": "view",
      "type": "function"
    },
    {
      "inputs": [],
      "name": "renounceOwnership",
      "outputs": [],
      "stateMutability": "nonpayable",
      "type": "function"
    },
    {
      "inputs": [],
      "name": "reserveNFTs",
      "outputs": [],
      "stateMutability": "nonpayable",
      "type": "function"
    },
    {
      "inputs": [
        {
          "internalType": "address",
          "name": "from",
          "type": "address"
        },
        {
          "internalType": "address",
          "name": "to",
          "type": "address"
        },
        {
          "internalType": "uint256",
          "name": "tokenId",
          "type": "uint256"
        }
      ],
      "name": "safeTransferFrom",
      "outputs": [],
      "stateMutability": "nonpayable",
      "type": "function"
    },
    {
      "inputs": [
        {
          "internalType": "address",
          "name": "from",
          "type": "address"
        },
        {
          "internalType": "address",
          "name": "to",
          "type": "address"
        },
        {
          "internalType": "uint256",
          "name": "tokenId",
          "type": "uint256"
        },
        {
          "internalType": "bytes",
          "name": "_data",
          "type": "bytes"
        }
      ],
      "name": "safeTransferFrom",
      "outputs": [],
      "stateMutability": "nonpayable",
      "type": "function"
    },
    {
      "inputs": [
        {
          "internalType": "address",
          "name": "operator",
          "type": "address"
        },
        {
          "internalType": "bool",
          "name": "approved",
          "type": "bool"
        }
      ],
      "name": "setApprovalForAll",
      "outputs": [],
      "stateMutability": "nonpayable",
      "type": "function"
    },
    {
      "inputs": [
        {
          "internalType": "string",
          "name": "_baseTokenURI",
          "type": "string"
        }
      ],
      "name": "setBaseURI",
      "outputs": [],
      "stateMutability": "nonpayable",
      "type": "function"
    },
    {
      "inputs": [
        {
          "internalType": "bytes4",
          "name": "interfaceId",
          "type": "bytes4"
        }
      ],
      "name": "supportsInterface",
      "outputs": [
        {
          "internalType": "bool",
          "name": "",
          "type": "bool"
        }
      ],
      "stateMutability": "view",
      "type": "function"
    },
    {
      "inputs": [],
      "name": "symbol",
      "outputs": [
        {
          "internalType": "string",
          "name": "",
          "type": "string"
        }
      ],
      "stateMutability": "view",
      "type": "function"
    },
    {
      "inputs": [
        {
          "internalType": "uint256",
          "name": "index",
          "type": "uint256"
        }
      ],
      "name": "tokenByIndex",
      "outputs": [
        {
          "internalType": "uint256",
          "name": "",
          "type": "uint256"
        }
      ],
      "stateMutability": "view",
      "type": "function"
    },
    {
      "inputs": [
        {
          "internalType": "address",
          "name": "owner",
          "type": "address"
        },
        {
          "internalType": "uint256",
          "name": "index",
          "type": "uint256"
        }
      ],
      "name": "tokenOfOwnerByIndex",
      "outputs": [
        {
          "internalType": "uint256",
          "name": "",
          "type": "uint256"
        }
      ],
      "stateMutability": "view",
      "type": "function"
    },
    {
      "inputs": [
        {
          "internalType": "uint256",
          "name": "tokenId",
          "type": "uint256"
        }
      ],
      "name": "tokenURI",
      "outputs": [
        {
          "internalType": "string",
          "name": "",
          "type": "string"
        }
      ],
      "stateMutability": "view",
      "type": "function"
    },
    {
      "inputs": [
        {
          "internalType": "address",
          "name": "_owner",
          "type": "address"
        }
      ],
      "name": "tokensOfOwner",
      "outputs": [
        {
          "internalType": "uint256[]",
          "name": "",
          "type": "uint256[]"
        }
      ],
      "stateMutability": "view",
      "type": "function"
    },
    {
      "inputs": [],
      "name": "totalSupply",
      "outputs": [
        {
          "internalType": "uint256",
          "name": "",
          "type": "uint256"
        }
      ],
      "stateMutability": "view",
      "type": "function"
    },
    {
      "inputs": [
        {
          "internalType": "address",
          "name": "from",
          "type": "address"
        },
        {
          "internalType": "address",
          "name": "to",
          "type": "address"
        },
        {
          "internalType": "uint256",
          "name": "tokenId",
          "type": "uint256"
        }
      ],
      "name": "transferFrom",
      "outputs": [],
      "stateMutability": "nonpayable",
      "type": "function"
    },
    {
      "inputs": [
        {
          "internalType": "address",
          "name": "newOwner",
          "type": "address"
        }
      ],
      "name": "transferOwnership",
      "outputs": [],
      "stateMutability": "nonpayable",
      "type": "function"
    },
    {
      "inputs": [],
      "name": "withdraw",
      "outputs": [],
      "stateMutability": "payable",
      "type": "function"
    }
  ],
  "bytecode": "0x60806040523480156200001157600080fd5b50604051620048bb380380620048bb8339818101604052810190620000379190620003d4565b6040518060400160405280600f81526020017f4e465420436f6c6c65637469626c6500000000000000000000000000000000008152506040518060400160405280600481526020017f4e465443000000000000000000000000000000000000000000000000000000008152508160009080519060200190620000bb929190620002b2565b508060019080519060200190620000d4929190620002b2565b505050620000f7620000eb6200010f60201b60201c565b6200011760201b60201c565b6200010881620001dd60201b60201c565b506200060c565b600033905090565b6000600a60009054906101000a900473ffffffffffffffffffffffffffffffffffffffff16905081600a60006101000a81548173ffffffffffffffffffffffffffffffffffffffff021916908373ffffffffffffffffffffffffffffffffffffffff1602179055508173ffffffffffffffffffffffffffffffffffffffff168173ffffffffffffffffffffffffffffffffffffffff167f8be0079c531659141344cd1fd0a4f28419497f9722a3daafe3b4186f6b6457e060405160405180910390a35050565b620001ed6200010f60201b60201c565b73ffffffffffffffffffffffffffffffffffffffff16620002136200028860201b60201c565b73ffffffffffffffffffffffffffffffffffffffff16146200026c576040517f08c379a0000000000000000000000000000000000000000000000000000000008152600401620002639062000440565b60405180910390fd5b80600c908051906020019062000284929190620002b2565b5050565b6000600a60009054906101000a900473ffffffffffffffffffffffffffffffffffffffff16905090565b828054620002c09062000508565b90600052602060002090601f016020900481019282620002e4576000855562000330565b82601f10620002ff57805160ff191683800117855562000330565b8280016001018555821562000330579182015b828111156200032f57825182559160200191906001019062000312565b5b5090506200033f919062000343565b5090565b5b808211156200035e57600081600090555060010162000344565b5090565b60006200037962000373846200048b565b62000462565b9050828152602081018484840111156200039257600080fd5b6200039f848285620004d2565b509392505050565b600082601f830112620003b957600080fd5b8151620003cb84826020860162000362565b91505092915050565b600060208284031215620003e757600080fd5b600082015167ffffffffffffffff8111156200040257600080fd5b6200041084828501620003a7565b91505092915050565b600062000428602083620004c1565b91506200043582620005e3565b602082019050919050565b600060208201905081810360008301526200045b8162000419565b9050919050565b60006200046e62000481565b90506200047c82826200053e565b919050565b6000604051905090565b600067ffffffffffffffff821115620004a957620004a8620005a3565b5b620004b482620005d2565b9050602081019050919050565b600082825260208201905092915050565b60005b83811015620004f2578082015181840152602081019050620004d5565b8381111562000502576000848401525b50505050565b600060028204905060018216806200052157607f821691505b6020821081141562000538576200053762000574565b5b50919050565b6200054982620005d2565b810181811067ffffffffffffffff821117156200056b576200056a620005a3565b5b80604052505050565b7f4e487b7100000000000000000000000000000000000000000000000000000000600052602260045260246000fd5b7f4e487b7100000000000000000000000000000000000000000000000000000000600052604160045260246000fd5b6000601f19601f8301169050919050565b7f4f776e61626c653a2063616c6c6572206973206e6f7420746865206f776e6572600082015250565b61429f806200061c6000396000f3fe6080604052600436106101b75760003560e01c806355f804b3116100ec57806395d89b411161008a578063c87b56dd11610064578063c87b56dd146105de578063d547cfb71461061b578063e985e9c514610646578063f2fde38b14610683576101b7565b806395d89b4114610561578063a22cb4651461058c578063b88d4fde146105b5576101b7565b8063715018a6116100c6578063715018a6146104b75780638462151c146104ce5780638d859f3e1461050b5780638da5cb5b14610536576101b7565b806355f804b3146104145780636352211e1461043d57806370a082311461047a576101b7565b806323b872dd116101595780633b4b1381116101335780633b4b1381146103885780633ccfd60b146103a457806342842e0e146103ae5780634f6ccce7146103d7576101b7565b806323b872dd146102f75780632f745c591461032057806332cb6b0c1461035d576101b7565b8063095ea7b311610195578063095ea7b31461026157806309d42b301461028a578063144100c7146102b557806318160ddd146102cc576101b7565b806301ffc9a7146101bc57806306fdde03146101f9578063081812fc14610224575b600080fd5b3480156101c857600080fd5b506101e360048036038101906101de9190612cce565b6106ac565b6040516101f091906133b9565b60405180910390f35b34801561020557600080fd5b5061020e610726565b60405161021b91906133d4565b60405180910390f35b34801561023057600080fd5b5061024b60048036038101906102469190612d61565b6107b8565b6040516102589190613330565b60405180910390f35b34801561026d57600080fd5b5061028860048036038101906102839190612c92565b61083d565b005b34801561029657600080fd5b5061029f610955565b6040516102ac91906136f6565b60405180910390f35b3480156102c157600080fd5b506102ca61095a565b005b3480156102d857600080fd5b506102e1610a65565b6040516102ee91906136f6565b60405180910390f35b34801561030357600080fd5b5061031e60048036038101906103199190612b8c565b610a72565b005b34801561032c57600080fd5b5061034760048036038101906103429190612c92565b610ad2565b60405161035491906136f6565b60405180910390f35b34801561036957600080fd5b50610372610b77565b60405161037f91906136f6565b60405180910390f35b6103a2600480360381019061039d9190612d61565b610b7c565b005b6103ac610cb7565b005b3480156103ba57600080fd5b506103d560048036038101906103d09190612b8c565b610e2b565b005b3480156103e357600080fd5b506103fe60048036038101906103f99190612d61565b610e4b565b60405161040b91906136f6565b60405180910390f35b34801561042057600080fd5b5061043b60048036038101906104369190612d20565b610ee2565b005b34801561044957600080fd5b50610464600480360381019061045f9190612d61565b610f78565b6040516104719190613330565b60405180910390f35b34801561048657600080fd5b506104a1600480360381019061049c9190612b27565b61102a565b6040516104ae91906136f6565b60405180910390f35b3480156104c357600080fd5b506104cc6110e2565b005b3480156104da57600080fd5b506104f560048036038101906104f09190612b27565b61116a565b6040516105029190613397565b60405180910390f35b34801561051757600080fd5b50610520611264565b60405161052d91906136f6565b60405180910390f35b34801561054257600080fd5b5061054b61126f565b6040516105589190613330565b60405180910390f35b34801561056d57600080fd5b50610576611299565b60405161058391906133d4565b60405180910390f35b34801561059857600080fd5b506105b360048036038101906105ae9190612c56565b61132b565b005b3480156105c157600080fd5b506105dc60048036038101906105d79190612bdb565b611341565b005b3480156105ea57600080fd5b5061060560048036038101906106009190612d61565b6113a3565b60405161061291906133d4565b60405180910390f35b34801561062757600080fd5b5061063061144b565b60405161063d91906133d4565b60405180910390f35b34801561065257600080fd5b5061066d60048036038101906106689190612b50565b6114d9565b60405161067a91906133b9565b60405180910390f35b34801561068f57600080fd5b506106aa60048036038101906106a59190612b27565b61156d565b005b60007f780e9d63000000000000000000000000000000000000000000000000000000007bffffffffffffffffffffffffffffffffffffffffffffffffffffffff1916827bffffffffffffffffffffffffffffffffffffffffffffffffffffffff1916148061071f575061071e82611665565b5b9050919050565b606060008054610735906139ff565b80601f0160208091040260200160405190810160405280929190818152602001828054610761906139ff565b80156107ae5780601f10610783576101008083540402835291602001916107ae565b820191906000526020600020905b81548152906001019060200180831161079157829003601f168201915b5050505050905090565b60006107c382611747565b610802576040517f08c379a00000000000000000000000000000000000000000000000000000000081526004016107f9906135f6565b60405180910390fd5b6004600083815260200190815260200160002060009054906101000a900473ffffffffffffffffffffffffffffffffffffffff169050919050565b600061084882610f78565b90508073ffffffffffffffffffffffffffffffffffffffff168373ffffffffffffffffffffffffffffffffffffffff1614156108b9576040517f08c379a00000000000000000000000000000000000000000000000000000000081526004016108b090613676565b60405180910390fd5b8073ffffffffffffffffffffffffffffffffffffffff166108d86117b3565b73ffffffffffffffffffffffffffffffffffffffff1614806109075750610906816109016117b3565b6114d9565b5b610946576040517f08c379a000000000000000000000000000000000000000000000000000000000815260040161093d90613536565b60405180910390fd5b61095083836117bb565b505050565b600581565b6109626117b3565b73ffffffffffffffffffffffffffffffffffffffff1661098061126f565b73ffffffffffffffffffffffffffffffffffffffff16146109d6576040517f08c379a00000000000000000000000000000000000000000000000000000000081526004016109cd90613616565b60405180910390fd5b60006109e2600b611874565b905060646109fa600a8361188290919063ffffffff16565b10610a3a576040517f08c379a0000000000000000000000000000000000000000000000000000000008152600401610a3190613596565b60405180910390fd5b60005b600a811015610a6157610a4e611898565b8080610a5990613a62565b915050610a3d565b5050565b6000600880549050905090565b610a83610a7d6117b3565b826118bd565b610ac2576040517f08c379a0000000000000000000000000000000000000000000000000000000008152600401610ab9906136b6565b60405180910390fd5b610acd83838361199b565b505050565b6000610add8361102a565b8210610b1e576040517f08c379a0000000000000000000000000000000000000000000000000000000008152600401610b1590613416565b60405180910390fd5b600660008473ffffffffffffffffffffffffffffffffffffffff1673ffffffffffffffffffffffffffffffffffffffff168152602001908152602001600020600083815260200190815260200160002054905092915050565b606481565b6000610b88600b611874565b90506064610b9f838361188290919063ffffffff16565b1115610be0576040517f08c379a0000000000000000000000000000000000000000000000000000000008152600401610bd7906133f6565b60405180910390fd5b600082118015610bf1575060058211155b610c30576040517f08c379a0000000000000000000000000000000000000000000000000000000008152600401610c27906134f6565b60405180910390fd5b610c4a82662386f26fc10000611bf790919063ffffffff16565b341015610c8c576040517f08c379a0000000000000000000000000000000000000000000000000000000008152600401610c83906134d6565b60405180910390fd5b60005b82811015610cb257610c9f611898565b8080610caa90613a62565b915050610c8f565b505050565b610cbf6117b3565b73ffffffffffffffffffffffffffffffffffffffff16610cdd61126f565b73ffffffffffffffffffffffffffffffffffffffff1614610d33576040517f08c379a0000000000000000000000000000000000000000000000000000000008152600401610d2a90613616565b60405180910390fd5b600047905060008111610d7b576040517f08c379a0000000000000000000000000000000000000000000000000000000008152600401610d72906135d6565b60405180910390fd5b60003373ffffffffffffffffffffffffffffffffffffffff1682604051610da19061331b565b60006040518083038185875af1925050503d8060008114610dde576040519150601f19603f3d011682016040523d82523d6000602084013e610de3565b606091505b5050905080610e27576040517f08c379a0000000000000000000000000000000000000000000000000000000008152600401610e1e90613696565b60405180910390fd5b5050565b610e4683838360405180602001604052806000815250611341565b505050565b6000610e55610a65565b8210610e96576040517f08c379a0000000000000000000000000000000000000000000000000000000008152600401610e8d906136d6565b60405180910390fd5b60088281548110610ed0577f4e487b7100000000000000000000000000000000000000000000000000000000600052603260045260246000fd5b90600052602060002001549050919050565b610eea6117b3565b73ffffffffffffffffffffffffffffffffffffffff16610f0861126f565b73ffffffffffffffffffffffffffffffffffffffff1614610f5e576040517f08c379a0000000000000000000000000000000000000000000000000000000008152600401610f5590613616565b60405180910390fd5b80600c9080519060200190610f7492919061294b565b5050565b6000806002600084815260200190815260200160002060009054906101000a900473ffffffffffffffffffffffffffffffffffffffff169050600073ffffffffffffffffffffffffffffffffffffffff168173ffffffffffffffffffffffffffffffffffffffff161415611021576040517f08c379a000000000000000000000000000000000000000000000000000000000815260040161101890613576565b60405180910390fd5b80915050919050565b60008073ffffffffffffffffffffffffffffffffffffffff168273ffffffffffffffffffffffffffffffffffffffff16141561109b576040517f08c379a000000000000000000000000000000000000000000000000000000000815260040161109290613556565b60405180910390fd5b600360008373ffffffffffffffffffffffffffffffffffffffff1673ffffffffffffffffffffffffffffffffffffffff168152602001908152602001600020549050919050565b6110ea6117b3565b73ffffffffffffffffffffffffffffffffffffffff1661110861126f565b73ffffffffffffffffffffffffffffffffffffffff161461115e576040517f08c379a000000000000000000000000000000000000000000000000000000000815260040161115590613616565b60405180910390fd5b6111686000611c0d565b565b606060006111778361102a565b905060008167ffffffffffffffff8111156111bb577f4e487b7100000000000000000000000000000000000000000000000000000000600052604160045260246000fd5b6040519080825280602002602001820160405280156111e95781602001602082028036833780820191505090505b50905060005b82811015611259576112018582610ad2565b82828151811061123a577f4e487b7100000000000000000000000000000000000000000000000000000000600052603260045260246000fd5b602002602001018181525050808061125190613a62565b9150506111ef565b508092505050919050565b662386f26fc1000081565b6000600a60009054906101000a900473ffffffffffffffffffffffffffffffffffffffff16905090565b6060600180546112a8906139ff565b80601f01602080910402602001604051908101604052809291908181526020018280546112d4906139ff565b80156113215780601f106112f657610100808354040283529160200191611321565b820191906000526020600020905b81548152906001019060200180831161130457829003601f168201915b5050505050905090565b61133d6113366117b3565b8383611cd3565b5050565b61135261134c6117b3565b836118bd565b611391576040517f08c379a0000000000000000000000000000000000000000000000000000000008152600401611388906136b6565b60405180910390fd5b61139d84848484611e40565b50505050565b60606113ae82611747565b6113ed576040517f08c379a00000000000000000000000000000000000000000000000000000000081526004016113e490613656565b60405180910390fd5b6000600c80546113fc906139ff565b9050116114185760405180602001604052806000815250611444565b600c61142383611e9c565b6040516020016114349291906132ec565b6040516020818303038152906040525b9050919050565b600c8054611458906139ff565b80601f0160208091040260200160405190810160405280929190818152602001828054611484906139ff565b80156114d15780601f106114a6576101008083540402835291602001916114d1565b820191906000526020600020905b8154815290600101906020018083116114b457829003601f168201915b505050505081565b6000600560008473ffffffffffffffffffffffffffffffffffffffff1673ffffffffffffffffffffffffffffffffffffffff16815260200190815260200160002060008373ffffffffffffffffffffffffffffffffffffffff1673ffffffffffffffffffffffffffffffffffffffff16815260200190815260200160002060009054906101000a900460ff16905092915050565b6115756117b3565b73ffffffffffffffffffffffffffffffffffffffff1661159361126f565b73ffffffffffffffffffffffffffffffffffffffff16146115e9576040517f08c379a00000000000000000000000000000000000000000000000000000000081526004016115e090613616565b60405180910390fd5b600073ffffffffffffffffffffffffffffffffffffffff168173ffffffffffffffffffffffffffffffffffffffff161415611659576040517f08c379a000000000000000000000000000000000000000000000000000000000815260040161165090613456565b60405180910390fd5b61166281611c0d565b50565b60007f80ac58cd000000000000000000000000000000000000000000000000000000007bffffffffffffffffffffffffffffffffffffffffffffffffffffffff1916827bffffffffffffffffffffffffffffffffffffffffffffffffffffffff1916148061173057507f5b5e139f000000000000000000000000000000000000000000000000000000007bffffffffffffffffffffffffffffffffffffffffffffffffffffffff1916827bffffffffffffffffffffffffffffffffffffffffffffffffffffffff1916145b80611740575061173f82612049565b5b9050919050565b60008073ffffffffffffffffffffffffffffffffffffffff166002600084815260200190815260200160002060009054906101000a900473ffffffffffffffffffffffffffffffffffffffff1673ffffffffffffffffffffffffffffffffffffffff1614159050919050565b600033905090565b816004600083815260200190815260200160002060006101000a81548173ffffffffffffffffffffffffffffffffffffffff021916908373ffffffffffffffffffffffffffffffffffffffff160217905550808273ffffffffffffffffffffffffffffffffffffffff1661182e83610f78565b73ffffffffffffffffffffffffffffffffffffffff167f8c5be1e5ebec7d5bd14f71427d1e84f3dd0314c0f7b2291e5b200ac8c7c3b92560405160405180910390a45050565b600081600001549050919050565b600081836118909190613834565b905092915050565b60006118a4600b611874565b90506118b033826120b3565b6118ba600b6120d1565b50565b60006118c882611747565b611907576040517f08c379a00000000000000000000000000000000000000000000000000000000081526004016118fe90613516565b60405180910390fd5b600061191283610f78565b90508073ffffffffffffffffffffffffffffffffffffffff168473ffffffffffffffffffffffffffffffffffffffff16148061198157508373ffffffffffffffffffffffffffffffffffffffff16611969846107b8565b73ffffffffffffffffffffffffffffffffffffffff16145b80611992575061199181856114d9565b5b91505092915050565b8273ffffffffffffffffffffffffffffffffffffffff166119bb82610f78565b73ffffffffffffffffffffffffffffffffffffffff1614611a11576040517f08c379a0000000000000000000000000000000000000000000000000000000008152600401611a0890613636565b60405180910390fd5b600073ffffffffffffffffffffffffffffffffffffffff168273ffffffffffffffffffffffffffffffffffffffff161415611a81576040517f08c379a0000000000000000000000000000000000000000000000000000000008152600401611a7890613496565b60405180910390fd5b611a8c8383836120e7565b611a976000826117bb565b6001600360008573ffffffffffffffffffffffffffffffffffffffff1673ffffffffffffffffffffffffffffffffffffffff1681526020019081526020016000206000828254611ae79190613915565b925050819055506001600360008473ffffffffffffffffffffffffffffffffffffffff1673ffffffffffffffffffffffffffffffffffffffff1681526020019081526020016000206000828254611b3e9190613834565b92505081905550816002600083815260200190815260200160002060006101000a81548173ffffffffffffffffffffffffffffffffffffffff021916908373ffffffffffffffffffffffffffffffffffffffff160217905550808273ffffffffffffffffffffffffffffffffffffffff168473ffffffffffffffffffffffffffffffffffffffff167fddf252ad1be2c89b69c2b068fc378daa952ba7f163c4a11628f55a4df523b3ef60405160405180910390a4505050565b60008183611c0591906138bb565b905092915050565b6000600a60009054906101000a900473ffffffffffffffffffffffffffffffffffffffff16905081600a60006101000a81548173ffffffffffffffffffffffffffffffffffffffff021916908373ffffffffffffffffffffffffffffffffffffffff1602179055508173ffffffffffffffffffffffffffffffffffffffff168173ffffffffffffffffffffffffffffffffffffffff167f8be0079c531659141344cd1fd0a4f28419497f9722a3daafe3b4186f6b6457e060405160405180910390a35050565b8173ffffffffffffffffffffffffffffffffffffffff168373ffffffffffffffffffffffffffffffffffffffff161415611d42576040517f08c379a0000000000000000000000000000000000000000000000000000000008152600401611d39906134b6565b60405180910390fd5b80600560008573ffffffffffffffffffffffffffffffffffffffff1673ffffffffffffffffffffffffffffffffffffffff16815260200190815260200160002060008473ffffffffffffffffffffffffffffffffffffffff1673ffffffffffffffffffffffffffffffffffffffff16815260200190815260200160002060006101000a81548160ff0219169083151502179055508173ffffffffffffffffffffffffffffffffffffffff168373ffffffffffffffffffffffffffffffffffffffff167f17307eab39ab6107e8899845ad3d59bd9653f200f220920489ca2b5937696c3183604051611e3391906133b9565b60405180910390a3505050565b611e4b84848461199b565b611e57848484846121fb565b611e96576040517f08c379a0000000000000000000000000000000000000000000000000000000008152600401611e8d90613436565b60405180910390fd5b50505050565b60606000821415611ee4576040518060400160405280600181526020017f30000000000000000000000000000000000000000000000000000000000000008152509050612044565b600082905060005b60008214611f16578080611eff90613a62565b915050600a82611f0f919061388a565b9150611eec565b60008167ffffffffffffffff811115611f58577f4e487b7100000000000000000000000000000000000000000000000000000000600052604160045260246000fd5b6040519080825280601f01601f191660200182016040528015611f8a5781602001600182028036833780820191505090505b5090505b6000851461203d57600182611fa39190613915565b9150600a85611fb29190613aab565b6030611fbe9190613834565b60f81b818381518110611ffa577f4e487b7100000000000000000000000000000000000000000000000000000000600052603260045260246000fd5b60200101907effffffffffffffffffffffffffffffffffffffffffffffffffffffffffffff1916908160001a905350600a85612036919061388a565b9450611f8e565b8093505050505b919050565b60007f01ffc9a7000000000000000000000000000000000000000000000000000000007bffffffffffffffffffffffffffffffffffffffffffffffffffffffff1916827bffffffffffffffffffffffffffffffffffffffffffffffffffffffff1916149050919050565b6120cd828260405180602001604052806000815250612392565b5050565b6001816000016000828254019250508190555050565b6120f28383836123ed565b600073ffffffffffffffffffffffffffffffffffffffff168373ffffffffffffffffffffffffffffffffffffffff16141561213557612130816123f2565b612174565b8173ffffffffffffffffffffffffffffffffffffffff168373ffffffffffffffffffffffffffffffffffffffff161461217357612172838261243b565b5b5b600073ffffffffffffffffffffffffffffffffffffffff168273ffffffffffffffffffffffffffffffffffffffff1614156121b7576121b2816125a8565b6121f6565b8273ffffffffffffffffffffffffffffffffffffffff168273ffffffffffffffffffffffffffffffffffffffff16146121f5576121f482826126eb565b5b5b505050565b600061221c8473ffffffffffffffffffffffffffffffffffffffff1661276a565b15612385578373ffffffffffffffffffffffffffffffffffffffff1663150b7a026122456117b3565b8786866040518563ffffffff1660e01b8152600401612267949392919061334b565b602060405180830381600087803b15801561228157600080fd5b505af19250505080156122b257506040513d601f19601f820116820180604052508101906122af9190612cf7565b60015b612335573d80600081146122e2576040519150601f19603f3d011682016040523d82523d6000602084013e6122e7565b606091505b5060008151141561232d576040517f08c379a000000000000000000000000000000000000000000000000000000000815260040161232490613436565b60405180910390fd5b805181602001fd5b63150b7a0260e01b7bffffffffffffffffffffffffffffffffffffffffffffffffffffffff1916817bffffffffffffffffffffffffffffffffffffffffffffffffffffffff19161491505061238a565b600190505b949350505050565b61239c838361277d565b6123a960008484846121fb565b6123e8576040517f08c379a00000000000000000000000000000000000000000000000000000000081526004016123df90613436565b60405180910390fd5b505050565b505050565b6008805490506009600083815260200190815260200160002081905550600881908060018154018082558091505060019003906000526020600020016000909190919091505550565b600060016124488461102a565b6124529190613915565b9050600060076000848152602001908152602001600020549050818114612537576000600660008673ffffffffffffffffffffffffffffffffffffffff1673ffffffffffffffffffffffffffffffffffffffff168152602001908152602001600020600084815260200190815260200160002054905080600660008773ffffffffffffffffffffffffffffffffffffffff1673ffffffffffffffffffffffffffffffffffffffff168152602001908152602001600020600084815260200190815260200160002081905550816007600083815260200190815260200160002081905550505b6007600084815260200190815260200160002060009055600660008573ffffffffffffffffffffffffffffffffffffffff1673ffffffffffffffffffffffffffffffffffffffff16815260200190815260200160002060008381526020019081526020016000206000905550505050565b600060016008805490506125bc9190613915565b9050600060096000848152602001908152602001600020549050600060088381548110612612577f4e487b7100000000000000000000000000000000000000000000000000000000600052603260045260246000fd5b90600052602060002001549050806008838154811061265a577f4e487b7100000000000000000000000000000000000000000000000000000000600052603260045260246000fd5b9060005260206000200181905550816009600083815260200190815260200160002081905550600960008581526020019081526020016000206000905560088054806126cf577f4e487b7100000000000000000000000000000000000000000000000000000000600052603160045260246000fd5b6001900381819060005260206000200160009055905550505050565b60006126f68361102a565b905081600660008573ffffffffffffffffffffffffffffffffffffffff1673ffffffffffffffffffffffffffffffffffffffff168152602001908152602001600020600083815260200190815260200160002081905550806007600084815260200190815260200160002081905550505050565b600080823b905060008111915050919050565b600073ffffffffffffffffffffffffffffffffffffffff168273ffffffffffffffffffffffffffffffffffffffff1614156127ed576040517f08c379a00000000000000000000000000000000000000000000000000000000081526004016127e4906135b6565b60405180910390fd5b6127f681611747565b15612836576040517f08c379a000000000000000000000000000000000000000000000000000000000815260040161282d90613476565b60405180910390fd5b612842600083836120e7565b6001600360008473ffffffffffffffffffffffffffffffffffffffff1673ffffffffffffffffffffffffffffffffffffffff16815260200190815260200160002060008282546128929190613834565b92505081905550816002600083815260200190815260200160002060006101000a81548173ffffffffffffffffffffffffffffffffffffffff021916908373ffffffffffffffffffffffffffffffffffffffff160217905550808273ffffffffffffffffffffffffffffffffffffffff16600073ffffffffffffffffffffffffffffffffffffffff167fddf252ad1be2c89b69c2b068fc378daa952ba7f163c4a11628f55a4df523b3ef60405160405180910390a45050565b828054612957906139ff565b90600052602060002090601f01602090048101928261297957600085556129c0565b82601f1061299257805160ff19168380011785556129c0565b828001600101855582156129c0579182015b828111156129bf5782518255916020019190600101906129a4565b5b5090506129cd91906129d1565b5090565b5b808211156129ea5760008160009055506001016129d2565b5090565b6000612a016129fc84613736565b613711565b905082815260208101848484011115612a1957600080fd5b612a248482856139bd565b509392505050565b6000612a3f612a3a84613767565b613711565b905082815260208101848484011115612a5757600080fd5b612a628482856139bd565b509392505050565b600081359050612a798161420d565b92915050565b600081359050612a8e81614224565b92915050565b600081359050612aa38161423b565b92915050565b600081519050612ab88161423b565b92915050565b600082601f830112612acf57600080fd5b8135612adf8482602086016129ee565b91505092915050565b600082601f830112612af957600080fd5b8135612b09848260208601612a2c565b91505092915050565b600081359050612b2181614252565b92915050565b600060208284031215612b3957600080fd5b6000612b4784828501612a6a565b91505092915050565b60008060408385031215612b6357600080fd5b6000612b7185828601612a6a565b9250506020612b8285828601612a6a565b9150509250929050565b600080600060608486031215612ba157600080fd5b6000612baf86828701612a6a565b9350506020612bc086828701612a6a565b9250506040612bd186828701612b12565b9150509250925092565b60008060008060808587031215612bf157600080fd5b6000612bff87828801612a6a565b9450506020612c1087828801612a6a565b9350506040612c2187828801612b12565b925050606085013567ffffffffffffffff811115612c3e57600080fd5b612c4a87828801612abe565b91505092959194509250565b60008060408385031215612c6957600080fd5b6000612c7785828601612a6a565b9250506020612c8885828601612a7f565b9150509250929050565b60008060408385031215612ca557600080fd5b6000612cb385828601612a6a565b9250506020612cc485828601612b12565b9150509250929050565b600060208284031215612ce057600080fd5b6000612cee84828501612a94565b91505092915050565b600060208284031215612d0957600080fd5b6000612d1784828501612aa9565b91505092915050565b600060208284031215612d3257600080fd5b600082013567ffffffffffffffff811115612d4c57600080fd5b612d5884828501612ae8565b91505092915050565b600060208284031215612d7357600080fd5b6000612d8184828501612b12565b91505092915050565b6000612d9683836132ce565b60208301905092915050565b612dab81613949565b82525050565b6000612dbc826137bd565b612dc681856137eb565b9350612dd183613798565b8060005b83811015612e02578151612de98882612d8a565b9750612df4836137de565b925050600181019050612dd5565b5085935050505092915050565b612e188161395b565b82525050565b6000612e29826137c8565b612e3381856137fc565b9350612e438185602086016139cc565b612e4c81613b98565b840191505092915050565b6000612e62826137d3565b612e6c8185613818565b9350612e7c8185602086016139cc565b612e8581613b98565b840191505092915050565b6000612e9b826137d3565b612ea58185613829565b9350612eb58185602086016139cc565b80840191505092915050565b60008154612ece816139ff565b612ed88186613829565b94506001821660008114612ef35760018114612f0457612f37565b60ff19831686528186019350612f37565b612f0d856137a8565b60005b83811015612f2f57815481890152600182019150602081019050612f10565b838801955050505b50505092915050565b6000612f4d601083613818565b9150612f5882613ba9565b602082019050919050565b6000612f70602b83613818565b9150612f7b82613bd2565b604082019050919050565b6000612f93603283613818565b9150612f9e82613c21565b604082019050919050565b6000612fb6602683613818565b9150612fc182613c70565b604082019050919050565b6000612fd9601c83613818565b9150612fe482613cbf565b602082019050919050565b6000612ffc602483613818565b915061300782613ce8565b604082019050919050565b600061301f601983613818565b915061302a82613d37565b602082019050919050565b6000613042602283613818565b915061304d82613d60565b604082019050919050565b6000613065602583613818565b915061307082613daf565b604082019050919050565b6000613088602c83613818565b915061309382613dfe565b604082019050919050565b60006130ab603883613818565b91506130b682613e4d565b604082019050919050565b60006130ce602a83613818565b91506130d982613e9c565b604082019050919050565b60006130f1602983613818565b91506130fc82613eeb565b604082019050919050565b6000613114600f83613818565b915061311f82613f3a565b602082019050919050565b6000613137602083613818565b915061314282613f63565b602082019050919050565b600061315a601983613818565b915061316582613f8c565b602082019050919050565b600061317d602c83613818565b915061318882613fb5565b604082019050919050565b60006131a0600583613829565b91506131ab82614004565b600582019050919050565b60006131c3602083613818565b91506131ce8261402d565b602082019050919050565b60006131e6602983613818565b91506131f182614056565b604082019050919050565b6000613209602f83613818565b9150613214826140a5565b604082019050919050565b600061322c602183613818565b9150613237826140f4565b604082019050919050565b600061324f60008361380d565b915061325a82614143565b600082019050919050565b6000613272601083613818565b915061327d82614146565b602082019050919050565b6000613295603183613818565b91506132a08261416f565b604082019050919050565b60006132b8602c83613818565b91506132c3826141be565b604082019050919050565b6132d7816139b3565b82525050565b6132e6816139b3565b82525050565b60006132f88285612ec1565b91506133048284612e90565b915061330f82613193565b91508190509392505050565b600061332682613242565b9150819050919050565b60006020820190506133456000830184612da2565b92915050565b60006080820190506133606000830187612da2565b61336d6020830186612da2565b61337a60408301856132dd565b818103606083015261338c8184612e1e565b905095945050505050565b600060208201905081810360008301526133b18184612db1565b905092915050565b60006020820190506133ce6000830184612e0f565b92915050565b600060208201905081810360008301526133ee8184612e57565b905092915050565b6000602082019050818103600083015261340f81612f40565b9050919050565b6000602082019050818103600083015261342f81612f63565b9050919050565b6000602082019050818103600083015261344f81612f86565b9050919050565b6000602082019050818103600083015261346f81612fa9565b9050919050565b6000602082019050818103600083015261348f81612fcc565b9050919050565b600060208201905081810360008301526134af81612fef565b9050919050565b600060208201905081810360008301526134cf81613012565b9050919050565b600060208201905081810360008301526134ef81613035565b9050919050565b6000602082019050818103600083015261350f81613058565b9050919050565b6000602082019050818103600083015261352f8161307b565b9050919050565b6000602082019050818103600083015261354f8161309e565b9050919050565b6000602082019050818103600083015261356f816130c1565b9050919050565b6000602082019050818103600083015261358f816130e4565b9050919050565b600060208201905081810360008301526135af81613107565b9050919050565b600060208201905081810360008301526135cf8161312a565b9050919050565b600060208201905081810360008301526135ef8161314d565b9050919050565b6000602082019050818103600083015261360f81613170565b9050919050565b6000602082019050818103600083015261362f816131b6565b9050919050565b6000602082019050818103600083015261364f816131d9565b9050919050565b6000602082019050818103600083015261366f816131fc565b9050919050565b6000602082019050818103600083015261368f8161321f565b9050919050565b600060208201905081810360008301526136af81613265565b9050919050565b600060208201905081810360008301526136cf81613288565b9050919050565b600060208201905081810360008301526136ef816132ab565b9050919050565b600060208201905061370b60008301846132dd565b92915050565b600061371b61372c565b90506137278282613a31565b919050565b6000604051905090565b600067ffffffffffffffff82111561375157613750613b69565b5b61375a82613b98565b9050602081019050919050565b600067ffffffffffffffff82111561378257613781613b69565b5b61378b82613b98565b9050602081019050919050565b6000819050602082019050919050565b60008190508160005260206000209050919050565b600081519050919050565b600081519050919050565b600081519050919050565b6000602082019050919050565b600082825260208201905092915050565b600082825260208201905092915050565b600081905092915050565b600082825260208201905092915050565b600081905092915050565b600061383f826139b3565b915061384a836139b3565b9250827fffffffffffffffffffffffffffffffffffffffffffffffffffffffffffffffff0382111561387f5761387e613adc565b5b828201905092915050565b6000613895826139b3565b91506138a0836139b3565b9250826138b0576138af613b0b565b5b828204905092915050565b60006138c6826139b3565b91506138d1836139b3565b9250817fffffffffffffffffffffffffffffffffffffffffffffffffffffffffffffffff048311821515161561390a57613909613adc565b5b828202905092915050565b6000613920826139b3565b915061392b836139b3565b92508282101561393e5761393d613adc565b5b828203905092915050565b600061395482613993565b9050919050565b60008115159050919050565b60007fffffffff0000000000000000000000000000000000000000000000000000000082169050919050565b600073ffffffffffffffffffffffffffffffffffffffff82169050919050565b6000819050919050565b82818337600083830152505050565b60005b838110156139ea5780820151818401526020810190506139cf565b838111156139f9576000848401525b50505050565b60006002820490506001821680613a1757607f821691505b60208210811415613a2b57613a2a613b3a565b5b50919050565b613a3a82613b98565b810181811067ffffffffffffffff82111715613a5957613a58613b69565b5b80604052505050565b6000613a6d826139b3565b91507fffffffffffffffffffffffffffffffffffffffffffffffffffffffffffffffff821415613aa057613a9f613adc565b5b600182019050919050565b6000613ab6826139b3565b9150613ac1836139b3565b925082613ad157613ad0613b0b565b5b828206905092915050565b7f4e487b7100000000000000000000000000000000000000000000000000000000600052601160045260246000fd5b7f4e487b7100000000000000000000000000000000000000000000000000000000600052601260045260246000fd5b7f4e487b7100000000000000000000000000000000000000000000000000000000600052602260045260246000fd5b7f4e487b7100000000000000000000000000000000000000000000000000000000600052604160045260246000fd5b6000601f19601f8301169050919050565b7f4e6f7420656e6f756768204e4654732100000000000000000000000000000000600082015250565b7f455243373231456e756d657261626c653a206f776e657220696e646578206f7560008201527f74206f6620626f756e6473000000000000000000000000000000000000000000602082015250565b7f4552433732313a207472616e7366657220746f206e6f6e20455243373231526560008201527f63656976657220696d706c656d656e7465720000000000000000000000000000602082015250565b7f4f776e61626c653a206e6577206f776e657220697320746865207a65726f206160008201527f6464726573730000000000000000000000000000000000000000000000000000602082015250565b7f4552433732313a20746f6b656e20616c7265616479206d696e74656400000000600082015250565b7f4552433732313a207472616e7366657220746f20746865207a65726f2061646460008201527f7265737300000000000000000000000000000000000000000000000000000000602082015250565b7f4552433732313a20617070726f766520746f2063616c6c657200000000000000600082015250565b7f4e6f7420656e6f75676820657468657220746f207075726368617365204e465460008201527f732e000000000000000000000000000000000000000000000000000000000000602082015250565b7f43616e6e6f74206d696e7420737065636966696564206e756d626572206f662060008201527f4e4654732e000000000000000000000000000000000000000000000000000000602082015250565b7f4552433732313a206f70657261746f7220717565727920666f72206e6f6e657860008201527f697374656e7420746f6b656e0000000000000000000000000000000000000000602082015250565b7f4552433732313a20617070726f76652063616c6c6572206973206e6f74206f7760008201527f6e6572206e6f7220617070726f76656420666f7220616c6c0000000000000000602082015250565b7f4552433732313a2062616c616e636520717565727920666f7220746865207a6560008201527f726f206164647265737300000000000000000000000000000000000000000000602082015250565b7f4552433732313a206f776e657220717565727920666f72206e6f6e657869737460008201527f656e7420746f6b656e0000000000000000000000000000000000000000000000602082015250565b7f4e6f7420656e6f756768204e4654730000000000000000000000000000000000600082015250565b7f4552433732313a206d696e7420746f20746865207a65726f2061646472657373600082015250565b7f4e6f206574686572206c65667420746f20776974686472617700000000000000600082015250565b7f4552433732313a20617070726f76656420717565727920666f72206e6f6e657860008201527f697374656e7420746f6b656e0000000000000000000000000000000000000000602082015250565b7f2e6a736f6e000000000000000000000000000000000000000000000000000000600082015250565b7f4f776e61626c653a2063616c6c6572206973206e6f7420746865206f776e6572600082015250565b7f4552433732313a207472616e73666572206f6620746f6b656e2074686174206960008201527f73206e6f74206f776e0000000000000000000000000000000000000000000000602082015250565b7f4552433732314d657461646174613a2055524920717565727920666f72206e6f60008201527f6e6578697374656e7420746f6b656e0000000000000000000000000000000000602082015250565b7f4552433732313a20617070726f76616c20746f2063757272656e74206f776e6560008201527f7200000000000000000000000000000000000000000000000000000000000000602082015250565b50565b7f5472616e73666572206661696c65642e00000000000000000000000000000000600082015250565b7f4552433732313a207472616e736665722063616c6c6572206973206e6f74206f60008201527f776e6572206e6f7220617070726f766564000000000000000000000000000000602082015250565b7f455243373231456e756d657261626c653a20676c6f62616c20696e646578206f60008201527f7574206f6620626f756e64730000000000000000000000000000000000000000602082015250565b61421681613949565b811461422157600080fd5b50565b61422d8161395b565b811461423857600080fd5b50565b61424481613967565b811461424f57600080fd5b50565b61425b816139b3565b811461426657600080fd5b5056fea2646970667358221220e73d9a9827dbfab9af633c37bf4a9844aede5b92675f254fb4328bc3b7e7e95064736f6c63430008030033",
  "linkReferences": {},
  "deployedLinkReferences": {}
}